{
  "contractName": "Shinuamai2",
  "abi": [
    {
      "inputs": [
        {
          "internalType": "address",
          "name": "tokenAddress",
          "type": "address"
        }
      ],
      "stateMutability": "nonpayable",
      "type": "constructor"
    },
    {
      "anonymous": false,
      "inputs": [
        {
          "indexed": true,
          "internalType": "address",
          "name": "owner",
          "type": "address"
        },
        {
          "indexed": true,
          "internalType": "address",
          "name": "approved",
          "type": "address"
        },
        {
          "indexed": true,
          "internalType": "uint256",
          "name": "tokenId",
          "type": "uint256"
        }
      ],
      "name": "Approval",
      "type": "event"
    },
    {
      "anonymous": false,
      "inputs": [
        {
          "indexed": true,
          "internalType": "address",
          "name": "owner",
          "type": "address"
        },
        {
          "indexed": true,
          "internalType": "address",
          "name": "operator",
          "type": "address"
        },
        {
          "indexed": false,
          "internalType": "bool",
          "name": "approved",
          "type": "bool"
        }
      ],
      "name": "ApprovalForAll",
      "type": "event"
    },
    {
      "anonymous": false,
      "inputs": [
        {
          "indexed": true,
          "internalType": "address",
          "name": "previousOwner",
          "type": "address"
        },
        {
          "indexed": true,
          "internalType": "address",
          "name": "newOwner",
          "type": "address"
        }
      ],
      "name": "OwnershipTransferred",
      "type": "event"
    },
    {
      "anonymous": false,
      "inputs": [
        {
          "indexed": true,
          "internalType": "address",
          "name": "from",
          "type": "address"
        },
        {
          "indexed": true,
          "internalType": "address",
          "name": "to",
          "type": "address"
        },
        {
          "indexed": true,
          "internalType": "uint256",
          "name": "tokenId",
          "type": "uint256"
        }
      ],
      "name": "Transfer",
      "type": "event"
    },
    {
      "inputs": [
        {
          "internalType": "address",
          "name": "to",
          "type": "address"
        },
        {
          "internalType": "uint256",
          "name": "tokenId",
          "type": "uint256"
        }
      ],
      "name": "approve",
      "outputs": [],
      "stateMutability": "nonpayable",
      "type": "function"
    },
    {
      "inputs": [
        {
          "internalType": "address",
          "name": "owner",
          "type": "address"
        }
      ],
      "name": "balanceOf",
      "outputs": [
        {
          "internalType": "uint256",
          "name": "",
          "type": "uint256"
        }
      ],
      "stateMutability": "view",
      "type": "function",
      "constant": true
    },
    {
      "inputs": [
        {
          "internalType": "uint256",
          "name": "tokenId",
          "type": "uint256"
        }
      ],
      "name": "getApproved",
      "outputs": [
        {
          "internalType": "address",
          "name": "",
          "type": "address"
        }
      ],
      "stateMutability": "view",
      "type": "function",
      "constant": true
    },
    {
      "inputs": [
        {
          "internalType": "address",
          "name": "owner",
          "type": "address"
        },
        {
          "internalType": "address",
          "name": "operator",
          "type": "address"
        }
      ],
      "name": "isApprovedForAll",
      "outputs": [
        {
          "internalType": "bool",
          "name": "",
          "type": "bool"
        }
      ],
      "stateMutability": "view",
      "type": "function",
      "constant": true
    },
    {
      "inputs": [],
      "name": "name",
      "outputs": [
        {
          "internalType": "string",
          "name": "",
          "type": "string"
        }
      ],
      "stateMutability": "view",
      "type": "function",
      "constant": true
    },
    {
      "inputs": [],
      "name": "owner",
      "outputs": [
        {
          "internalType": "address",
          "name": "",
          "type": "address"
        }
      ],
      "stateMutability": "view",
      "type": "function",
      "constant": true
    },
    {
      "inputs": [
        {
          "internalType": "uint256",
          "name": "tokenId",
          "type": "uint256"
        }
      ],
      "name": "ownerOf",
      "outputs": [
        {
          "internalType": "address",
          "name": "",
          "type": "address"
        }
      ],
      "stateMutability": "view",
      "type": "function",
      "constant": true
    },
    {
      "inputs": [],
      "name": "paymentToken",
      "outputs": [
        {
          "internalType": "address",
          "name": "",
          "type": "address"
        }
      ],
      "stateMutability": "view",
      "type": "function",
      "constant": true
    },
    {
      "inputs": [],
      "name": "renounceOwnership",
      "outputs": [],
      "stateMutability": "nonpayable",
      "type": "function"
    },
    {
      "inputs": [
        {
          "internalType": "address",
          "name": "from",
          "type": "address"
        },
        {
          "internalType": "address",
          "name": "to",
          "type": "address"
        },
        {
          "internalType": "uint256",
          "name": "tokenId",
          "type": "uint256"
        }
      ],
      "name": "safeTransferFrom",
      "outputs": [],
      "stateMutability": "nonpayable",
      "type": "function"
    },
    {
      "inputs": [
        {
          "internalType": "address",
          "name": "from",
          "type": "address"
        },
        {
          "internalType": "address",
          "name": "to",
          "type": "address"
        },
        {
          "internalType": "uint256",
          "name": "tokenId",
          "type": "uint256"
        },
        {
          "internalType": "bytes",
          "name": "_data",
          "type": "bytes"
        }
      ],
      "name": "safeTransferFrom",
      "outputs": [],
      "stateMutability": "nonpayable",
      "type": "function"
    },
    {
      "inputs": [
        {
          "internalType": "address",
          "name": "operator",
          "type": "address"
        },
        {
          "internalType": "bool",
          "name": "approved",
          "type": "bool"
        }
      ],
      "name": "setApprovalForAll",
      "outputs": [],
      "stateMutability": "nonpayable",
      "type": "function"
    },
    {
      "inputs": [
        {
          "internalType": "bytes4",
          "name": "interfaceId",
          "type": "bytes4"
        }
      ],
      "name": "supportsInterface",
      "outputs": [
        {
          "internalType": "bool",
          "name": "",
          "type": "bool"
        }
      ],
      "stateMutability": "view",
      "type": "function",
      "constant": true
    },
    {
      "inputs": [],
      "name": "symbol",
      "outputs": [
        {
          "internalType": "string",
          "name": "",
          "type": "string"
        }
      ],
      "stateMutability": "view",
      "type": "function",
      "constant": true
    },
    {
      "inputs": [
        {
          "internalType": "uint256",
          "name": "index",
          "type": "uint256"
        }
      ],
      "name": "tokenByIndex",
      "outputs": [
        {
          "internalType": "uint256",
          "name": "",
          "type": "uint256"
        }
      ],
      "stateMutability": "view",
      "type": "function",
      "constant": true
    },
    {
      "inputs": [
        {
          "internalType": "address",
          "name": "owner",
          "type": "address"
        },
        {
          "internalType": "uint256",
          "name": "index",
          "type": "uint256"
        }
      ],
      "name": "tokenOfOwnerByIndex",
      "outputs": [
        {
          "internalType": "uint256",
          "name": "",
          "type": "uint256"
        }
      ],
      "stateMutability": "view",
      "type": "function",
      "constant": true
    },
    {
      "inputs": [
        {
          "internalType": "uint256",
          "name": "tokenId",
          "type": "uint256"
        }
      ],
      "name": "tokenURI",
      "outputs": [
        {
          "internalType": "string",
          "name": "",
          "type": "string"
        }
      ],
      "stateMutability": "view",
      "type": "function",
      "constant": true
    },
    {
      "inputs": [],
      "name": "totalSupply",
      "outputs": [
        {
          "internalType": "uint256",
          "name": "",
          "type": "uint256"
        }
      ],
      "stateMutability": "view",
      "type": "function",
      "constant": true
    },
    {
      "inputs": [
        {
          "internalType": "address",
          "name": "from",
          "type": "address"
        },
        {
          "internalType": "address",
          "name": "to",
          "type": "address"
        },
        {
          "internalType": "uint256",
          "name": "tokenId",
          "type": "uint256"
        }
      ],
      "name": "transferFrom",
      "outputs": [],
      "stateMutability": "nonpayable",
      "type": "function"
    },
    {
      "inputs": [
        {
          "internalType": "address",
          "name": "newOwner",
          "type": "address"
        }
      ],
      "name": "transferOwnership",
      "outputs": [],
      "stateMutability": "nonpayable",
      "type": "function"
    },
    {
      "stateMutability": "payable",
      "type": "receive",
      "payable": true
    },
    {
      "inputs": [],
      "name": "mintToken",
      "outputs": [],
      "stateMutability": "nonpayable",
      "type": "function"
    },
    {
      "inputs": [
        {
          "internalType": "uint256",
          "name": "amount",
          "type": "uint256"
        }
      ],
      "name": "mintMultiTokens",
      "outputs": [],
      "stateMutability": "nonpayable",
      "type": "function"
    },
    {
      "inputs": [
        {
          "internalType": "uint256",
          "name": "newTokenPrice",
          "type": "uint256"
        }
      ],
      "name": "setTokenPrice",
      "outputs": [],
      "stateMutability": "nonpayable",
      "type": "function"
    },
    {
      "inputs": [
        {
          "internalType": "bool",
          "name": "newMintEnable",
          "type": "bool"
        }
      ],
      "name": "setMintEnable",
      "outputs": [],
      "stateMutability": "nonpayable",
      "type": "function"
    }
  ],
  "bytecode": "0x60a06040526000600b556005600c556002600d556001600e60006101000a81548160ff0219169083151502179055503480156200003b57600080fd5b5060405162003e2538038062003e258339818101604052810190620000619190620002f4565b6040518060400160405280600a81526020017f5368696e75616d616932000000000000000000000000000000000000000000008152506040518060400160405280600481526020017f53484132000000000000000000000000000000000000000000000000000000008152508160009080519060200190620000e59291906200022d565b508060019080519060200190620000fe9291906200022d565b50505062000121620001156200015f60201b60201c565b6200016760201b60201c565b8073ffffffffffffffffffffffffffffffffffffffff1660808173ffffffffffffffffffffffffffffffffffffffff1660601b8152505050620003d3565b600033905090565b6000600a60009054906101000a900473ffffffffffffffffffffffffffffffffffffffff16905081600a60006101000a81548173ffffffffffffffffffffffffffffffffffffffff021916908373ffffffffffffffffffffffffffffffffffffffff1602179055508173ffffffffffffffffffffffffffffffffffffffff168173ffffffffffffffffffffffffffffffffffffffff167f8be0079c531659141344cd1fd0a4f28419497f9722a3daafe3b4186f6b6457e060405160405180910390a35050565b8280546200023b9062000354565b90600052602060002090601f0160209004810192826200025f5760008555620002ab565b82601f106200027a57805160ff1916838001178555620002ab565b82800160010185558215620002ab579182015b82811115620002aa5782518255916020019190600101906200028d565b5b509050620002ba9190620002be565b5090565b5b80821115620002d9576000816000905550600101620002bf565b5090565b600081519050620002ee81620003b9565b92915050565b6000602082840312156200030757600080fd5b60006200031784828501620002dd565b91505092915050565b60006200032d8262000334565b9050919050565b600073ffffffffffffffffffffffffffffffffffffffff82169050919050565b600060028204905060018216806200036d57607f821691505b602082108114156200038457620003836200038a565b5b50919050565b7f4e487b7100000000000000000000000000000000000000000000000000000000600052602260045260246000fd5b620003c48162000320565b8114620003d057600080fd5b50565b60805160601c613a25620004006000396000818161087701528181610c3e0152610e550152613a256000f3fe60806040526004361061014f5760003560e01c80636352211e116100b6578063981fb0471161006f578063981fb04714610503578063a22cb4651461052c578063b88d4fde14610555578063c87b56dd1461057e578063e985e9c5146105bb578063f2fde38b146105f8576101be565b80636352211e146103f35780636a61e5fc1461043057806370a0823114610459578063715018a6146104965780638da5cb5b146104ad57806395d89b41146104d8576101be565b80632004ffd9116101085780632004ffd9146102e557806323b872dd146102fc5780632f745c59146103255780633013ce291461036257806342842e0e1461038d5780634f6ccce7146103b6576101be565b806301ffc9a7146101c357806306616ed11461020057806306fdde0314610229578063081812fc14610254578063095ea7b31461029157806318160ddd146102ba576101be565b366101be57600c543411610198576040517f08c379a000000000000000000000000000000000000000000000000000000000815260040161018f90613310565b60405180910390fd5b6101a433600b54610621565b600b60008154809291906101b79061384c565b9190505550005b600080fd5b3480156101cf57600080fd5b506101ea60048036038101906101e59190612952565b6107fb565b6040516101f791906132b3565b60405180910390f35b34801561020c57600080fd5b50610227600480360381019061022291906129a4565b610875565b005b34801561023557600080fd5b5061023e6109b1565b60405161024b91906132ce565b60405180910390f35b34801561026057600080fd5b5061027b600480360381019061027691906129a4565b610a43565b6040516102889190613215565b60405180910390f35b34801561029d57600080fd5b506102b860048036038101906102b391906128c4565b610ac8565b005b3480156102c657600080fd5b506102cf610be0565b6040516102dc9190613590565b60405180910390f35b3480156102f157600080fd5b506102fa610bed565b005b34801561030857600080fd5b50610323600480360381019061031e91906127be565b610d4e565b005b34801561033157600080fd5b5061034c600480360381019061034791906128c4565b610dae565b6040516103599190613590565b60405180910390f35b34801561036e57600080fd5b50610377610e53565b6040516103849190613215565b60405180910390f35b34801561039957600080fd5b506103b460048036038101906103af91906127be565b610e77565b005b3480156103c257600080fd5b506103dd60048036038101906103d891906129a4565b610e97565b6040516103ea9190613590565b60405180910390f35b3480156103ff57600080fd5b5061041a600480360381019061041591906129a4565b610f2e565b6040516104279190613215565b60405180910390f35b34801561043c57600080fd5b50610457600480360381019061045291906129a4565b610fe0565b005b34801561046557600080fd5b50610480600480360381019061047b9190612759565b611066565b60405161048d9190613590565b60405180910390f35b3480156104a257600080fd5b506104ab61111e565b005b3480156104b957600080fd5b506104c26111a6565b6040516104cf9190613215565b60405180910390f35b3480156104e457600080fd5b506104ed6111d0565b6040516104fa91906132ce565b60405180910390f35b34801561050f57600080fd5b5061052a60048036038101906105259190612900565b611262565b005b34801561053857600080fd5b50610553600480360381019061054e9190612888565b6112fb565b005b34801561056157600080fd5b5061057c6004803603810190610577919061280d565b611311565b005b34801561058a57600080fd5b506105a560048036038101906105a091906129a4565b611373565b6040516105b291906132ce565b60405180910390f35b3480156105c757600080fd5b506105e260048036038101906105dd9190612782565b61141a565b6040516105ef91906132b3565b60405180910390f35b34801561060457600080fd5b5061061f600480360381019061061a9190612759565b6114ae565b005b600073ffffffffffffffffffffffffffffffffffffffff168273ffffffffffffffffffffffffffffffffffffffff161415610691576040517f08c379a0000000000000000000000000000000000000000000000000000000008152600401610688906134b0565b60405180910390fd5b61069a816115a6565b156106da576040517f08c379a00000000000000000000000000000000000000000000000000000000081526004016106d1906133d0565b60405180910390fd5b6106e660008383611612565b6001600360008473ffffffffffffffffffffffffffffffffffffffff1673ffffffffffffffffffffffffffffffffffffffff1681526020019081526020016000206000828254610736919061364f565b92505081905550816002600083815260200190815260200160002060006101000a81548173ffffffffffffffffffffffffffffffffffffffff021916908373ffffffffffffffffffffffffffffffffffffffff160217905550808273ffffffffffffffffffffffffffffffffffffffff16600073ffffffffffffffffffffffffffffffffffffffff167fddf252ad1be2c89b69c2b068fc378daa952ba7f163c4a11628f55a4df523b3ef60405160405180910390a46107f760008383611726565b5050565b60007f780e9d63000000000000000000000000000000000000000000000000000000007bffffffffffffffffffffffffffffffffffffffffffffffffffffffff1916827bffffffffffffffffffffffffffffffffffffffffffffffffffffffff1916148061086e575061086d8261172b565b5b9050919050565b7f000000000000000000000000000000000000000000000000000000000000000073ffffffffffffffffffffffffffffffffffffffff166323b872dd33306108bc8561180d565b6040518463ffffffff1660e01b81526004016108da93929190613230565b602060405180830381600087803b1580156108f457600080fd5b505af1158015610908573d6000803e3d6000fd5b505050506040513d601f19601f8201168201806040525081019061092c9190612929565b61096b576040517f08c379a000000000000000000000000000000000000000000000000000000000815260040161096290613390565b60405180910390fd5b6000600990505b818110156109ad5761099a33600b60008154809291906109919061384c565b91905055610621565b80806109a59061384c565b915050610972565b5050565b6060600080546109c09061381a565b80601f01602080910402602001604051908101604052809291908181526020018280546109ec9061381a565b8015610a395780601f10610a0e57610100808354040283529160200191610a39565b820191906000526020600020905b815481529060010190602001808311610a1c57829003601f168201915b5050505050905090565b6000610a4e826115a6565b610a8d576040517f08c379a0000000000000000000000000000000000000000000000000000000008152600401610a84906134d0565b60405180910390fd5b6004600083815260200190815260200160002060009054906101000a900473ffffffffffffffffffffffffffffffffffffffff169050919050565b6000610ad382610f2e565b90508073ffffffffffffffffffffffffffffffffffffffff168373ffffffffffffffffffffffffffffffffffffffff161415610b44576040517f08c379a0000000000000000000000000000000000000000000000000000000008152600401610b3b90613530565b60405180910390fd5b8073ffffffffffffffffffffffffffffffffffffffff16610b6361185d565b73ffffffffffffffffffffffffffffffffffffffff161480610b925750610b9181610b8c61185d565b61141a565b5b610bd1576040517f08c379a0000000000000000000000000000000000000000000000000000000008152600401610bc890613450565b60405180910390fd5b610bdb8383611865565b505050565b6000600880549050905090565b600e60009054906101000a900460ff16610c3c576040517f08c379a0000000000000000000000000000000000000000000000000000000008152600401610c33906132f0565b60405180910390fd5b7f000000000000000000000000000000000000000000000000000000000000000073ffffffffffffffffffffffffffffffffffffffff166323b872dd3330600c546040518463ffffffff1660e01b8152600401610c9b93929190613230565b602060405180830381600087803b158015610cb557600080fd5b505af1158015610cc9573d6000803e3d6000fd5b505050506040513d601f19601f82011682018060405250810190610ced9190612929565b610d2c576040517f08c379a0000000000000000000000000000000000000000000000000000000008152600401610d2390613390565b60405180910390fd5b610d4c33600b6000815480929190610d439061384c565b91905055610621565b565b610d5f610d5961185d565b8261191e565b610d9e576040517f08c379a0000000000000000000000000000000000000000000000000000000008152600401610d9590613550565b60405180910390fd5b610da98383836119fc565b505050565b6000610db983611066565b8210610dfa576040517f08c379a0000000000000000000000000000000000000000000000000000000008152600401610df190613330565b60405180910390fd5b600660008473ffffffffffffffffffffffffffffffffffffffff1673ffffffffffffffffffffffffffffffffffffffff168152602001908152602001600020600083815260200190815260200160002054905092915050565b7f000000000000000000000000000000000000000000000000000000000000000081565b610e9283838360405180602001604052806000815250611311565b505050565b6000610ea1610be0565b8210610ee2576040517f08c379a0000000000000000000000000000000000000000000000000000000008152600401610ed990613570565b60405180910390fd5b60088281548110610f1c577f4e487b7100000000000000000000000000000000000000000000000000000000600052603260045260246000fd5b90600052602060002001549050919050565b6000806002600084815260200190815260200160002060009054906101000a900473ffffffffffffffffffffffffffffffffffffffff169050600073ffffffffffffffffffffffffffffffffffffffff168173ffffffffffffffffffffffffffffffffffffffff161415610fd7576040517f08c379a0000000000000000000000000000000000000000000000000000000008152600401610fce90613490565b60405180910390fd5b80915050919050565b610fe861185d565b73ffffffffffffffffffffffffffffffffffffffff166110066111a6565b73ffffffffffffffffffffffffffffffffffffffff161461105c576040517f08c379a0000000000000000000000000000000000000000000000000000000008152600401611053906134f0565b60405180910390fd5b80600c8190555050565b60008073ffffffffffffffffffffffffffffffffffffffff168273ffffffffffffffffffffffffffffffffffffffff1614156110d7576040517f08c379a00000000000000000000000000000000000000000000000000000000081526004016110ce90613470565b60405180910390fd5b600360008373ffffffffffffffffffffffffffffffffffffffff1673ffffffffffffffffffffffffffffffffffffffff168152602001908152602001600020549050919050565b61112661185d565b73ffffffffffffffffffffffffffffffffffffffff166111446111a6565b73ffffffffffffffffffffffffffffffffffffffff161461119a576040517f08c379a0000000000000000000000000000000000000000000000000000000008152600401611191906134f0565b60405180910390fd5b6111a46000611c63565b565b6000600a60009054906101000a900473ffffffffffffffffffffffffffffffffffffffff16905090565b6060600180546111df9061381a565b80601f016020809104026020016040519081016040528092919081815260200182805461120b9061381a565b80156112585780601f1061122d57610100808354040283529160200191611258565b820191906000526020600020905b81548152906001019060200180831161123b57829003601f168201915b5050505050905090565b61126a61185d565b73ffffffffffffffffffffffffffffffffffffffff166112886111a6565b73ffffffffffffffffffffffffffffffffffffffff16146112de576040517f08c379a00000000000000000000000000000000000000000000000000000000081526004016112d5906134f0565b60405180910390fd5b80600e60006101000a81548160ff02191690831515021790555050565b61130d61130661185d565b8383611d29565b5050565b61132261131c61185d565b8361191e565b611361576040517f08c379a000000000000000000000000000000000000000000000000000000000815260040161135890613550565b60405180910390fd5b61136d84848484611e96565b50505050565b606061137e826115a6565b6113bd576040517f08c379a00000000000000000000000000000000000000000000000000000000081526004016113b490613510565b60405180910390fd5b60006113c7611ef2565b905060008151116113e75760405180602001604052806000815250611412565b806113f184611f09565b6040516020016114029291906131f1565b6040516020818303038152906040525b915050919050565b6000600560008473ffffffffffffffffffffffffffffffffffffffff1673ffffffffffffffffffffffffffffffffffffffff16815260200190815260200160002060008373ffffffffffffffffffffffffffffffffffffffff1673ffffffffffffffffffffffffffffffffffffffff16815260200190815260200160002060009054906101000a900460ff16905092915050565b6114b661185d565b73ffffffffffffffffffffffffffffffffffffffff166114d46111a6565b73ffffffffffffffffffffffffffffffffffffffff161461152a576040517f08c379a0000000000000000000000000000000000000000000000000000000008152600401611521906134f0565b60405180910390fd5b600073ffffffffffffffffffffffffffffffffffffffff168173ffffffffffffffffffffffffffffffffffffffff16141561159a576040517f08c379a000000000000000000000000000000000000000000000000000000000815260040161159190613370565b60405180910390fd5b6115a381611c63565b50565b60008073ffffffffffffffffffffffffffffffffffffffff166002600084815260200190815260200160002060009054906101000a900473ffffffffffffffffffffffffffffffffffffffff1673ffffffffffffffffffffffffffffffffffffffff1614159050919050565b61161d8383836120b6565b600073ffffffffffffffffffffffffffffffffffffffff168373ffffffffffffffffffffffffffffffffffffffff1614156116605761165b816120bb565b61169f565b8173ffffffffffffffffffffffffffffffffffffffff168373ffffffffffffffffffffffffffffffffffffffff161461169e5761169d8382612104565b5b5b600073ffffffffffffffffffffffffffffffffffffffff168273ffffffffffffffffffffffffffffffffffffffff1614156116e2576116dd81612271565b611721565b8273ffffffffffffffffffffffffffffffffffffffff168273ffffffffffffffffffffffffffffffffffffffff16146117205761171f82826123b4565b5b5b505050565b505050565b60007f80ac58cd000000000000000000000000000000000000000000000000000000007bffffffffffffffffffffffffffffffffffffffffffffffffffffffff1916827bffffffffffffffffffffffffffffffffffffffffffffffffffffffff191614806117f657507f5b5e139f000000000000000000000000000000000000000000000000000000007bffffffffffffffffffffffffffffffffffffffffffffffffffffffff1916827bffffffffffffffffffffffffffffffffffffffffffffffffffffffff1916145b80611806575061180582612433565b5b9050919050565b6000600182141561182257600c549050611858565b6064600d5460646118339190613730565b83600c5461184191906136d6565b61184b91906136d6565b61185591906136a5565b90505b919050565b600033905090565b816004600083815260200190815260200160002060006101000a81548173ffffffffffffffffffffffffffffffffffffffff021916908373ffffffffffffffffffffffffffffffffffffffff160217905550808273ffffffffffffffffffffffffffffffffffffffff166118d883610f2e565b73ffffffffffffffffffffffffffffffffffffffff167f8c5be1e5ebec7d5bd14f71427d1e84f3dd0314c0f7b2291e5b200ac8c7c3b92560405160405180910390a45050565b6000611929826115a6565b611968576040517f08c379a000000000000000000000000000000000000000000000000000000000815260040161195f90613430565b60405180910390fd5b600061197383610f2e565b90508073ffffffffffffffffffffffffffffffffffffffff168473ffffffffffffffffffffffffffffffffffffffff1614806119b557506119b4818561141a565b5b806119f357508373ffffffffffffffffffffffffffffffffffffffff166119db84610a43565b73ffffffffffffffffffffffffffffffffffffffff16145b91505092915050565b8273ffffffffffffffffffffffffffffffffffffffff16611a1c82610f2e565b73ffffffffffffffffffffffffffffffffffffffff1614611a72576040517f08c379a0000000000000000000000000000000000000000000000000000000008152600401611a69906133b0565b60405180910390fd5b600073ffffffffffffffffffffffffffffffffffffffff168273ffffffffffffffffffffffffffffffffffffffff161415611ae2576040517f08c379a0000000000000000000000000000000000000000000000000000000008152600401611ad9906133f0565b60405180910390fd5b611aed838383611612565b611af8600082611865565b6001600360008573ffffffffffffffffffffffffffffffffffffffff1673ffffffffffffffffffffffffffffffffffffffff1681526020019081526020016000206000828254611b489190613730565b925050819055506001600360008473ffffffffffffffffffffffffffffffffffffffff1673ffffffffffffffffffffffffffffffffffffffff1681526020019081526020016000206000828254611b9f919061364f565b92505081905550816002600083815260200190815260200160002060006101000a81548173ffffffffffffffffffffffffffffffffffffffff021916908373ffffffffffffffffffffffffffffffffffffffff160217905550808273ffffffffffffffffffffffffffffffffffffffff168473ffffffffffffffffffffffffffffffffffffffff167fddf252ad1be2c89b69c2b068fc378daa952ba7f163c4a11628f55a4df523b3ef60405160405180910390a4611c5e838383611726565b505050565b6000600a60009054906101000a900473ffffffffffffffffffffffffffffffffffffffff16905081600a60006101000a81548173ffffffffffffffffffffffffffffffffffffffff021916908373ffffffffffffffffffffffffffffffffffffffff1602179055508173ffffffffffffffffffffffffffffffffffffffff168173ffffffffffffffffffffffffffffffffffffffff167f8be0079c531659141344cd1fd0a4f28419497f9722a3daafe3b4186f6b6457e060405160405180910390a35050565b8173ffffffffffffffffffffffffffffffffffffffff168373ffffffffffffffffffffffffffffffffffffffff161415611d98576040517f08c379a0000000000000000000000000000000000000000000000000000000008152600401611d8f90613410565b60405180910390fd5b80600560008573ffffffffffffffffffffffffffffffffffffffff1673ffffffffffffffffffffffffffffffffffffffff16815260200190815260200160002060008473ffffffffffffffffffffffffffffffffffffffff1673ffffffffffffffffffffffffffffffffffffffff16815260200190815260200160002060006101000a81548160ff0219169083151502179055508173ffffffffffffffffffffffffffffffffffffffff168373ffffffffffffffffffffffffffffffffffffffff167f17307eab39ab6107e8899845ad3d59bd9653f200f220920489ca2b5937696c3183604051611e8991906132b3565b60405180910390a3505050565b611ea18484846119fc565b611ead8484848461249d565b611eec576040517f08c379a0000000000000000000000000000000000000000000000000000000008152600401611ee390613350565b60405180910390fd5b50505050565b606060405180602001604052806000815250905090565b60606000821415611f51576040518060400160405280600181526020017f300000000000000000000000000000000000000000000000000000000000000081525090506120b1565b600082905060005b60008214611f83578080611f6c9061384c565b915050600a82611f7c91906136a5565b9150611f59565b60008167ffffffffffffffff811115611fc5577f4e487b7100000000000000000000000000000000000000000000000000000000600052604160045260246000fd5b6040519080825280601f01601f191660200182016040528015611ff75781602001600182028036833780820191505090505b5090505b600085146120aa576001826120109190613730565b9150600a8561201f9190613895565b603061202b919061364f565b60f81b818381518110612067577f4e487b7100000000000000000000000000000000000000000000000000000000600052603260045260246000fd5b60200101907effffffffffffffffffffffffffffffffffffffffffffffffffffffffffffff1916908160001a905350600a856120a391906136a5565b9450611ffb565b8093505050505b919050565b505050565b6008805490506009600083815260200190815260200160002081905550600881908060018154018082558091505060019003906000526020600020016000909190919091505550565b6000600161211184611066565b61211b9190613730565b9050600060076000848152602001908152602001600020549050818114612200576000600660008673ffffffffffffffffffffffffffffffffffffffff1673ffffffffffffffffffffffffffffffffffffffff168152602001908152602001600020600084815260200190815260200160002054905080600660008773ffffffffffffffffffffffffffffffffffffffff1673ffffffffffffffffffffffffffffffffffffffff168152602001908152602001600020600084815260200190815260200160002081905550816007600083815260200190815260200160002081905550505b6007600084815260200190815260200160002060009055600660008573ffffffffffffffffffffffffffffffffffffffff1673ffffffffffffffffffffffffffffffffffffffff16815260200190815260200160002060008381526020019081526020016000206000905550505050565b600060016008805490506122859190613730565b90506000600960008481526020019081526020016000205490506000600883815481106122db577f4e487b7100000000000000000000000000000000000000000000000000000000600052603260045260246000fd5b906000526020600020015490508060088381548110612323577f4e487b7100000000000000000000000000000000000000000000000000000000600052603260045260246000fd5b906000526020600020018190555081600960008381526020019081526020016000208190555060096000858152602001908152602001600020600090556008805480612398577f4e487b7100000000000000000000000000000000000000000000000000000000600052603160045260246000fd5b6001900381819060005260206000200160009055905550505050565b60006123bf83611066565b905081600660008573ffffffffffffffffffffffffffffffffffffffff1673ffffffffffffffffffffffffffffffffffffffff168152602001908152602001600020600083815260200190815260200160002081905550806007600084815260200190815260200160002081905550505050565b60007f01ffc9a7000000000000000000000000000000000000000000000000000000007bffffffffffffffffffffffffffffffffffffffffffffffffffffffff1916827bffffffffffffffffffffffffffffffffffffffffffffffffffffffff1916149050919050565b60006124be8473ffffffffffffffffffffffffffffffffffffffff16612634565b15612627578373ffffffffffffffffffffffffffffffffffffffff1663150b7a026124e761185d565b8786866040518563ffffffff1660e01b81526004016125099493929190613267565b602060405180830381600087803b15801561252357600080fd5b505af192505050801561255457506040513d601f19601f82011682018060405250810190612551919061297b565b60015b6125d7573d8060008114612584576040519150601f19603f3d011682016040523d82523d6000602084013e612589565b606091505b506000815114156125cf576040517f08c379a00000000000000000000000000000000000000000000000000000000081526004016125c690613350565b60405180910390fd5b805181602001fd5b63150b7a0260e01b7bffffffffffffffffffffffffffffffffffffffffffffffffffffffff1916817bffffffffffffffffffffffffffffffffffffffffffffffffffffffff19161491505061262c565b600190505b949350505050565b6000808273ffffffffffffffffffffffffffffffffffffffff16803b806020016040519081016040528181526000908060200190933c51119050919050565b6000612686612681846135dc565b6135ab565b90508281526020810184848401111561269e57600080fd5b6126a98482856137d8565b509392505050565b6000813590506126c081613993565b92915050565b6000813590506126d5816139aa565b92915050565b6000815190506126ea816139aa565b92915050565b6000813590506126ff816139c1565b92915050565b600081519050612714816139c1565b92915050565b600082601f83011261272b57600080fd5b813561273b848260208601612673565b91505092915050565b600081359050612753816139d8565b92915050565b60006020828403121561276b57600080fd5b6000612779848285016126b1565b91505092915050565b6000806040838503121561279557600080fd5b60006127a3858286016126b1565b92505060206127b4858286016126b1565b9150509250929050565b6000806000606084860312156127d357600080fd5b60006127e1868287016126b1565b93505060206127f2868287016126b1565b925050604061280386828701612744565b9150509250925092565b6000806000806080858703121561282357600080fd5b6000612831878288016126b1565b9450506020612842878288016126b1565b935050604061285387828801612744565b925050606085013567ffffffffffffffff81111561287057600080fd5b61287c8782880161271a565b91505092959194509250565b6000806040838503121561289b57600080fd5b60006128a9858286016126b1565b92505060206128ba858286016126c6565b9150509250929050565b600080604083850312156128d757600080fd5b60006128e5858286016126b1565b92505060206128f685828601612744565b9150509250929050565b60006020828403121561291257600080fd5b6000612920848285016126c6565b91505092915050565b60006020828403121561293b57600080fd5b6000612949848285016126db565b91505092915050565b60006020828403121561296457600080fd5b6000612972848285016126f0565b91505092915050565b60006020828403121561298d57600080fd5b600061299b84828501612705565b91505092915050565b6000602082840312156129b657600080fd5b60006129c484828501612744565b91505092915050565b6129d681613764565b82525050565b6129e581613776565b82525050565b60006129f68261360c565b612a008185613622565b9350612a108185602086016137e7565b612a1981613982565b840191505092915050565b6000612a2f82613617565b612a398185613633565b9350612a498185602086016137e7565b612a5281613982565b840191505092915050565b6000612a6882613617565b612a728185613644565b9350612a828185602086016137e7565b80840191505092915050565b6000612a9b600f83613633565b91507f4d696e7420697320656e61626c656400000000000000000000000000000000006000830152602082019050919050565b6000612adb601183613633565b91507f457468206973206e6f7420656e6f7567680000000000000000000000000000006000830152602082019050919050565b6000612b1b602b83613633565b91507f455243373231456e756d657261626c653a206f776e657220696e646578206f7560008301527f74206f6620626f756e64730000000000000000000000000000000000000000006020830152604082019050919050565b6000612b81603283613633565b91507f4552433732313a207472616e7366657220746f206e6f6e20455243373231526560008301527f63656976657220696d706c656d656e74657200000000000000000000000000006020830152604082019050919050565b6000612be7602683613633565b91507f4f776e61626c653a206e6577206f776e657220697320746865207a65726f206160008301527f64647265737300000000000000000000000000000000000000000000000000006020830152604082019050919050565b6000612c4d600f83613633565b91507f5472616e73666572206661696c656400000000000000000000000000000000006000830152602082019050919050565b6000612c8d602583613633565b91507f4552433732313a207472616e736665722066726f6d20696e636f72726563742060008301527f6f776e65720000000000000000000000000000000000000000000000000000006020830152604082019050919050565b6000612cf3601c83613633565b91507f4552433732313a20746f6b656e20616c7265616479206d696e746564000000006000830152602082019050919050565b6000612d33602483613633565b91507f4552433732313a207472616e7366657220746f20746865207a65726f2061646460008301527f72657373000000000000000000000000000000000000000000000000000000006020830152604082019050919050565b6000612d99601983613633565b91507f4552433732313a20617070726f766520746f2063616c6c6572000000000000006000830152602082019050919050565b6000612dd9602c83613633565b91507f4552433732313a206f70657261746f7220717565727920666f72206e6f6e657860008301527f697374656e7420746f6b656e00000000000000000000000000000000000000006020830152604082019050919050565b6000612e3f603883613633565b91507f4552433732313a20617070726f76652063616c6c6572206973206e6f74206f7760008301527f6e6572206e6f7220617070726f76656420666f7220616c6c00000000000000006020830152604082019050919050565b6000612ea5602a83613633565b91507f4552433732313a2062616c616e636520717565727920666f7220746865207a6560008301527f726f2061646472657373000000000000000000000000000000000000000000006020830152604082019050919050565b6000612f0b602983613633565b91507f4552433732313a206f776e657220717565727920666f72206e6f6e657869737460008301527f656e7420746f6b656e00000000000000000000000000000000000000000000006020830152604082019050919050565b6000612f71602083613633565b91507f4552433732313a206d696e7420746f20746865207a65726f20616464726573736000830152602082019050919050565b6000612fb1602c83613633565b91507f4552433732313a20617070726f76656420717565727920666f72206e6f6e657860008301527f697374656e7420746f6b656e00000000000000000000000000000000000000006020830152604082019050919050565b6000613017602083613633565b91507f4f776e61626c653a2063616c6c6572206973206e6f7420746865206f776e65726000830152602082019050919050565b6000613057602f83613633565b91507f4552433732314d657461646174613a2055524920717565727920666f72206e6f60008301527f6e6578697374656e7420746f6b656e00000000000000000000000000000000006020830152604082019050919050565b60006130bd602183613633565b91507f4552433732313a20617070726f76616c20746f2063757272656e74206f776e6560008301527f72000000000000000000000000000000000000000000000000000000000000006020830152604082019050919050565b6000613123603183613633565b91507f4552433732313a207472616e736665722063616c6c6572206973206e6f74206f60008301527f776e6572206e6f7220617070726f7665640000000000000000000000000000006020830152604082019050919050565b6000613189602c83613633565b91507f455243373231456e756d657261626c653a20676c6f62616c20696e646578206f60008301527f7574206f6620626f756e647300000000000000000000000000000000000000006020830152604082019050919050565b6131eb816137ce565b82525050565b60006131fd8285612a5d565b91506132098284612a5d565b91508190509392505050565b600060208201905061322a60008301846129cd565b92915050565b600060608201905061324560008301866129cd565b61325260208301856129cd565b61325f60408301846131e2565b949350505050565b600060808201905061327c60008301876129cd565b61328960208301866129cd565b61329660408301856131e2565b81810360608301526132a881846129eb565b905095945050505050565b60006020820190506132c860008301846129dc565b92915050565b600060208201905081810360008301526132e88184612a24565b905092915050565b6000602082019050818103600083015261330981612a8e565b9050919050565b6000602082019050818103600083015261332981612ace565b9050919050565b6000602082019050818103600083015261334981612b0e565b9050919050565b6000602082019050818103600083015261336981612b74565b9050919050565b6000602082019050818103600083015261338981612bda565b9050919050565b600060208201905081810360008301526133a981612c40565b9050919050565b600060208201905081810360008301526133c981612c80565b9050919050565b600060208201905081810360008301526133e981612ce6565b9050919050565b6000602082019050818103600083015261340981612d26565b9050919050565b6000602082019050818103600083015261342981612d8c565b9050919050565b6000602082019050818103600083015261344981612dcc565b9050919050565b6000602082019050818103600083015261346981612e32565b9050919050565b6000602082019050818103600083015261348981612e98565b9050919050565b600060208201905081810360008301526134a981612efe565b9050919050565b600060208201905081810360008301526134c981612f64565b9050919050565b600060208201905081810360008301526134e981612fa4565b9050919050565b600060208201905081810360008301526135098161300a565b9050919050565b600060208201905081810360008301526135298161304a565b9050919050565b60006020820190508181036000830152613549816130b0565b9050919050565b6000602082019050818103600083015261356981613116565b9050919050565b600060208201905081810360008301526135898161317c565b9050919050565b60006020820190506135a560008301846131e2565b92915050565b6000604051905081810181811067ffffffffffffffff821117156135d2576135d1613953565b5b8060405250919050565b600067ffffffffffffffff8211156135f7576135f6613953565b5b601f19601f8301169050602081019050919050565b600081519050919050565b600081519050919050565b600082825260208201905092915050565b600082825260208201905092915050565b600081905092915050565b600061365a826137ce565b9150613665836137ce565b9250827fffffffffffffffffffffffffffffffffffffffffffffffffffffffffffffffff0382111561369a576136996138c6565b5b828201905092915050565b60006136b0826137ce565b91506136bb836137ce565b9250826136cb576136ca6138f5565b5b828204905092915050565b60006136e1826137ce565b91506136ec836137ce565b9250817fffffffffffffffffffffffffffffffffffffffffffffffffffffffffffffffff0483118215151615613725576137246138c6565b5b828202905092915050565b600061373b826137ce565b9150613746836137ce565b925082821015613759576137586138c6565b5b828203905092915050565b600061376f826137ae565b9050919050565b60008115159050919050565b60007fffffffff0000000000000000000000000000000000000000000000000000000082169050919050565b600073ffffffffffffffffffffffffffffffffffffffff82169050919050565b6000819050919050565b82818337600083830152505050565b60005b838110156138055780820151818401526020810190506137ea565b83811115613814576000848401525b50505050565b6000600282049050600182168061383257607f821691505b6020821081141561384657613845613924565b5b50919050565b6000613857826137ce565b91507fffffffffffffffffffffffffffffffffffffffffffffffffffffffffffffffff82141561388a576138896138c6565b5b600182019050919050565b60006138a0826137ce565b91506138ab836137ce565b9250826138bb576138ba6138f5565b5b828206905092915050565b7f4e487b7100000000000000000000000000000000000000000000000000000000600052601160045260246000fd5b7f4e487b7100000000000000000000000000000000000000000000000000000000600052601260045260246000fd5b7f4e487b7100000000000000000000000000000000000000000000000000000000600052602260045260246000fd5b7f4e487b7100000000000000000000000000000000000000000000000000000000600052604160045260246000fd5b6000601f19601f8301169050919050565b61399c81613764565b81146139a757600080fd5b50565b6139b381613776565b81146139be57600080fd5b50565b6139ca81613782565b81146139d557600080fd5b50565b6139e1816137ce565b81146139ec57600080fd5b5056fea264697066735822122023a4c407a23f136a0099af28810b17de0bddd5639081fd3263c07971c085426a64736f6c63430008000033",
  "immutableReferences": {
    "2769": [
      {
        "length": 32,
        "start": 2167
      },
      {
        "length": 32,
        "start": 3134
      },
      {
        "length": 32,
        "start": 3669
      }
    ]
  },
  "source": "// SPDX-License-Identifier: MIT\r\npragma solidity 0.8.0;\r\n\r\nimport \"@openzeppelin/contracts/access/Ownable.sol\";\r\nimport \"@openzeppelin/contracts/token/ERC20/ERC20.sol\";\r\nimport \"@openzeppelin/contracts/token/ERC20/IERC20.sol\";\r\nimport \"@openzeppelin/contracts/token/ERC721/extensions/ERC721Enumerable.sol\";\r\n\r\n\r\ncontract Shinuamai2 is ERC721Enumerable, Ownable {\r\n    \r\n    uint256 uniqueIdCounter = 0;\r\n\r\n    uint256 tokenPrice = 5;\r\n\r\n    uint256 tokenrebate = 2;\r\n\r\n    bool enableMint = true;\r\n\r\n    address public immutable paymentToken;\r\n\r\n    \r\n\r\n    constructor(address tokenAddress) ERC721(\"Shinuamai2\", \"SHA2\") {\r\n        paymentToken = tokenAddress;\r\n    }\r\n\r\n    function mintToken() external {\r\n        require(enableMint, \"Mint is enabled\");\r\n        require(\r\n            IERC20(paymentToken).transferFrom(\r\n                msg.sender,\r\n                address(this),\r\n                tokenPrice\r\n            ),\r\n            \"Transfer failed\"\r\n        );\r\n        \r\n        _mint(msg.sender, uniqueIdCounter++);\r\n    }\r\n\r\n    function mintMultiTokens(uint256 amount) public {\r\n\r\n        require(\r\n            IERC20(paymentToken).transferFrom(\r\n                msg.sender,\r\n                address(this),\r\n                _calculatePayment(amount)\r\n            ),\r\n            \"Transfer failed\"\r\n        );\r\n        for (uint256 i = 9; i < amount; i++){\r\n            _mint(msg.sender, uniqueIdCounter++);\r\n        }\r\n    }\r\n\r\n    function _calculatePayment(uint256 amountOfTokens) internal view  returns(uint256){\r\n        if(amountOfTokens == 1) return tokenPrice;\r\n\r\n        return tokenPrice * amountOfTokens * (100 -tokenrebate) /100;\r\n    }\r\n\r\n    function setTokenPrice(uint256 newTokenPrice) public onlyOwner {\r\n        tokenPrice = newTokenPrice;\r\n    }\r\n\r\n    function setMintEnable(bool newMintEnable) public onlyOwner {\r\n        enableMint = newMintEnable;\r\n    }\r\n\r\n    receive() external payable {\r\n        require(msg.value > tokenPrice, \"Eth is not enough\");\r\n        _mint(msg.sender, uniqueIdCounter);\r\n        uniqueIdCounter++;\r\n    }\r\n}",
  "sourcePath": "C:\\Users\\itrmi\\OneDrive\\Documentos\\Laura\\Shinu\\Project1\\contracts\\Contract271.sol",
  "compiler": {
    "name": "solc",
    "version": "0.8.0+commit.c7dfd78e.Emscripten.clang"
  },
  "schemaVersion": "3.4.7",
  "updatedAt": "2022-06-23T01:18:40.094Z",
  "networkType": "ethereum",
  "devdoc": {
    "kind": "dev",
    "methods": {
      "approve(address,uint256)": {
        "details": "See {IERC721-approve}."
      },
      "balanceOf(address)": {
        "details": "See {IERC721-balanceOf}."
      },
      "getApproved(uint256)": {
        "details": "See {IERC721-getApproved}."
      },
      "isApprovedForAll(address,address)": {
        "details": "See {IERC721-isApprovedForAll}."
      },
      "name()": {
        "details": "See {IERC721Metadata-name}."
      },
      "owner()": {
        "details": "Returns the address of the current owner."
      },
      "ownerOf(uint256)": {
        "details": "See {IERC721-ownerOf}."
      },
      "renounceOwnership()": {
        "details": "Leaves the contract without owner. It will not be possible to call `onlyOwner` functions anymore. Can only be called by the current owner. NOTE: Renouncing ownership will leave the contract without an owner, thereby removing any functionality that is only available to the owner."
      },
      "safeTransferFrom(address,address,uint256)": {
        "details": "See {IERC721-safeTransferFrom}."
      },
      "safeTransferFrom(address,address,uint256,bytes)": {
        "details": "See {IERC721-safeTransferFrom}."
      },
      "setApprovalForAll(address,bool)": {
        "details": "See {IERC721-setApprovalForAll}."
      },
      "supportsInterface(bytes4)": {
        "details": "See {IERC165-supportsInterface}."
      },
      "symbol()": {
        "details": "See {IERC721Metadata-symbol}."
      },
      "tokenByIndex(uint256)": {
        "details": "See {IERC721Enumerable-tokenByIndex}."
      },
      "tokenOfOwnerByIndex(address,uint256)": {
        "details": "See {IERC721Enumerable-tokenOfOwnerByIndex}."
      },
      "tokenURI(uint256)": {
        "details": "See {IERC721Metadata-tokenURI}."
      },
      "totalSupply()": {
        "details": "See {IERC721Enumerable-totalSupply}."
      },
      "transferFrom(address,address,uint256)": {
        "details": "See {IERC721-transferFrom}."
      },
      "transferOwnership(address)": {
        "details": "Transfers ownership of the contract to a new account (`newOwner`). Can only be called by the current owner."
      }
    },
    "version": 1
  },
  "userdoc": {
    "kind": "user",
    "methods": {},
    "version": 1
  }
}