{
  "contractName": "Shinuamai",
  "abi": [
    {
      "inputs": [],
      "stateMutability": "nonpayable",
      "type": "constructor"
    },
    {
      "anonymous": false,
      "inputs": [
        {
          "indexed": true,
          "internalType": "address",
          "name": "owner",
          "type": "address"
        },
        {
          "indexed": true,
          "internalType": "address",
          "name": "spender",
          "type": "address"
        },
        {
          "indexed": false,
          "internalType": "uint256",
          "name": "value",
          "type": "uint256"
        }
      ],
      "name": "Approval",
      "type": "event"
    },
    {
      "anonymous": false,
      "inputs": [
        {
          "indexed": true,
          "internalType": "address",
          "name": "previousOwner",
          "type": "address"
        },
        {
          "indexed": true,
          "internalType": "address",
          "name": "newOwner",
          "type": "address"
        }
      ],
      "name": "OwnershipTransferred",
      "type": "event"
    },
    {
      "anonymous": false,
      "inputs": [
        {
          "indexed": true,
          "internalType": "address",
          "name": "from",
          "type": "address"
        },
        {
          "indexed": true,
          "internalType": "address",
          "name": "to",
          "type": "address"
        },
        {
          "indexed": false,
          "internalType": "uint256",
          "name": "value",
          "type": "uint256"
        }
      ],
      "name": "Transfer",
      "type": "event"
    },
    {
      "inputs": [
        {
          "internalType": "address",
          "name": "owner",
          "type": "address"
        },
        {
          "internalType": "address",
          "name": "spender",
          "type": "address"
        }
      ],
      "name": "allowance",
      "outputs": [
        {
          "internalType": "uint256",
          "name": "",
          "type": "uint256"
        }
      ],
      "stateMutability": "view",
      "type": "function",
      "constant": true
    },
    {
      "inputs": [
        {
          "internalType": "address",
          "name": "spender",
          "type": "address"
        },
        {
          "internalType": "uint256",
          "name": "amount",
          "type": "uint256"
        }
      ],
      "name": "approve",
      "outputs": [
        {
          "internalType": "bool",
          "name": "",
          "type": "bool"
        }
      ],
      "stateMutability": "nonpayable",
      "type": "function"
    },
    {
      "inputs": [
        {
          "internalType": "address",
          "name": "account",
          "type": "address"
        }
      ],
      "name": "balanceOf",
      "outputs": [
        {
          "internalType": "uint256",
          "name": "",
          "type": "uint256"
        }
      ],
      "stateMutability": "view",
      "type": "function",
      "constant": true
    },
    {
      "inputs": [],
      "name": "decimals",
      "outputs": [
        {
          "internalType": "uint8",
          "name": "",
          "type": "uint8"
        }
      ],
      "stateMutability": "view",
      "type": "function",
      "constant": true
    },
    {
      "inputs": [
        {
          "internalType": "address",
          "name": "spender",
          "type": "address"
        },
        {
          "internalType": "uint256",
          "name": "subtractedValue",
          "type": "uint256"
        }
      ],
      "name": "decreaseAllowance",
      "outputs": [
        {
          "internalType": "bool",
          "name": "",
          "type": "bool"
        }
      ],
      "stateMutability": "nonpayable",
      "type": "function"
    },
    {
      "inputs": [
        {
          "internalType": "address",
          "name": "spender",
          "type": "address"
        },
        {
          "internalType": "uint256",
          "name": "addedValue",
          "type": "uint256"
        }
      ],
      "name": "increaseAllowance",
      "outputs": [
        {
          "internalType": "bool",
          "name": "",
          "type": "bool"
        }
      ],
      "stateMutability": "nonpayable",
      "type": "function"
    },
    {
      "inputs": [],
      "name": "mintAmount",
      "outputs": [
        {
          "internalType": "uint256",
          "name": "",
          "type": "uint256"
        }
      ],
      "stateMutability": "view",
      "type": "function",
      "constant": true
    },
    {
      "inputs": [],
      "name": "name",
      "outputs": [
        {
          "internalType": "string",
          "name": "",
          "type": "string"
        }
      ],
      "stateMutability": "view",
      "type": "function",
      "constant": true
    },
    {
      "inputs": [],
      "name": "owner",
      "outputs": [
        {
          "internalType": "address",
          "name": "",
          "type": "address"
        }
      ],
      "stateMutability": "view",
      "type": "function",
      "constant": true
    },
    {
      "inputs": [],
      "name": "renounceOwnership",
      "outputs": [],
      "stateMutability": "nonpayable",
      "type": "function"
    },
    {
      "inputs": [],
      "name": "stakingContract",
      "outputs": [
        {
          "internalType": "address",
          "name": "",
          "type": "address"
        }
      ],
      "stateMutability": "view",
      "type": "function",
      "constant": true
    },
    {
      "inputs": [],
      "name": "symbol",
      "outputs": [
        {
          "internalType": "string",
          "name": "",
          "type": "string"
        }
      ],
      "stateMutability": "view",
      "type": "function",
      "constant": true
    },
    {
      "inputs": [],
      "name": "totalSupply",
      "outputs": [
        {
          "internalType": "uint256",
          "name": "",
          "type": "uint256"
        }
      ],
      "stateMutability": "view",
      "type": "function",
      "constant": true
    },
    {
      "inputs": [
        {
          "internalType": "address",
          "name": "to",
          "type": "address"
        },
        {
          "internalType": "uint256",
          "name": "amount",
          "type": "uint256"
        }
      ],
      "name": "transfer",
      "outputs": [
        {
          "internalType": "bool",
          "name": "",
          "type": "bool"
        }
      ],
      "stateMutability": "nonpayable",
      "type": "function"
    },
    {
      "inputs": [
        {
          "internalType": "address",
          "name": "from",
          "type": "address"
        },
        {
          "internalType": "address",
          "name": "to",
          "type": "address"
        },
        {
          "internalType": "uint256",
          "name": "amount",
          "type": "uint256"
        }
      ],
      "name": "transferFrom",
      "outputs": [
        {
          "internalType": "bool",
          "name": "",
          "type": "bool"
        }
      ],
      "stateMutability": "nonpayable",
      "type": "function"
    },
    {
      "inputs": [
        {
          "internalType": "address",
          "name": "newOwner",
          "type": "address"
        }
      ],
      "name": "transferOwnership",
      "outputs": [],
      "stateMutability": "nonpayable",
      "type": "function"
    },
    {
      "inputs": [
        {
          "internalType": "uint256",
          "name": "newMintAmount",
          "type": "uint256"
        }
      ],
      "name": "setMintAmount",
      "outputs": [],
      "stateMutability": "nonpayable",
      "type": "function"
    },
    {
      "inputs": [
        {
          "internalType": "address",
          "name": "_stakingContract",
          "type": "address"
        }
      ],
      "name": "setStakingContract",
      "outputs": [],
      "stateMutability": "nonpayable",
      "type": "function"
    },
    {
      "inputs": [
        {
          "internalType": "address",
          "name": "recipient",
          "type": "address"
        }
      ],
      "name": "mint",
      "outputs": [
        {
          "internalType": "bool",
          "name": "",
          "type": "bool"
        }
      ],
      "stateMutability": "nonpayable",
      "type": "function"
    },
    {
      "inputs": [
        {
          "internalType": "address",
          "name": "recipient",
          "type": "address"
        },
        {
          "internalType": "uint256",
          "name": "amount",
          "type": "uint256"
        }
      ],
      "name": "mintForStaking",
      "outputs": [
        {
          "internalType": "bool",
          "name": "",
          "type": "bool"
        }
      ],
      "stateMutability": "nonpayable",
      "type": "function"
    }
  ],
  "bytecode": "0x608060405260c86007553480156200001657600080fd5b506040518060400160405280600981526020017f5368696e75616d616900000000000000000000000000000000000000000000008152506040518060400160405280600381526020017f5348410000000000000000000000000000000000000000000000000000000000815250620000a362000097620000dd60201b60201c565b620000e560201b60201c565b8160049080519060200190620000bb929190620001a9565b508060059080519060200190620000d4929190620001a9565b505050620002be565b600033905090565b60008060009054906101000a900473ffffffffffffffffffffffffffffffffffffffff169050816000806101000a81548173ffffffffffffffffffffffffffffffffffffffff021916908373ffffffffffffffffffffffffffffffffffffffff1602179055508173ffffffffffffffffffffffffffffffffffffffff168173ffffffffffffffffffffffffffffffffffffffff167f8be0079c531659141344cd1fd0a4f28419497f9722a3daafe3b4186f6b6457e060405160405180910390a35050565b828054620001b79062000259565b90600052602060002090601f016020900481019282620001db576000855562000227565b82601f10620001f657805160ff191683800117855562000227565b8280016001018555821562000227579182015b828111156200022657825182559160200191906001019062000209565b5b5090506200023691906200023a565b5090565b5b80821115620002555760008160009055506001016200023b565b5090565b600060028204905060018216806200027257607f821691505b602082108114156200028957620002886200028f565b5b50919050565b7f4e487b7100000000000000000000000000000000000000000000000000000000600052602260045260246000fd5b611cd980620002ce6000396000f3fe608060405234801561001057600080fd5b506004361061012c5760003560e01c80638da5cb5b116100ad578063a9059cbb11610071578063a9059cbb1461035b578063c7cd997f1461038b578063dd62ed3e146103a7578063ee99205c146103d7578063f2fde38b146103f55761012c565b80638da5cb5b146102a35780638eadca36146102c157806395d89b41146102f15780639dd373b91461030f578063a457c2d71461032b5761012c565b806339509351116100f457806339509351146101eb5780635a2bcc181461021b5780636a6278421461023957806370a0823114610269578063715018a6146102995761012c565b806306fdde0314610131578063095ea7b31461014f57806318160ddd1461017f57806323b872dd1461019d578063313ce567146101cd575b600080fd5b610139610411565b6040516101469190611902565b60405180910390f35b610169600480360381019061016491906113e8565b6104a3565b60405161017691906118e7565b60405180910390f35b6101876104c6565b6040516101949190611aa4565b60405180910390f35b6101b760048036038101906101b29190611399565b6104d0565b6040516101c491906118e7565b60405180910390f35b6101d56104ff565b6040516101e29190611abf565b60405180910390f35b610205600480360381019061020091906113e8565b610508565b60405161021291906118e7565b60405180910390f35b61022361053f565b6040516102309190611aa4565b60405180910390f35b610253600480360381019061024e9190611334565b610545565b60405161026091906118e7565b60405180910390f35b610283600480360381019061027e9190611334565b610641565b6040516102909190611aa4565b60405180910390f35b6102a161068a565b005b6102ab610712565b6040516102b891906118cc565b60405180910390f35b6102db60048036038101906102d691906113e8565b61073b565b6040516102e891906118e7565b60405180910390f35b6102f96107e1565b6040516103069190611902565b60405180910390f35b61032960048036038101906103249190611334565b610873565b005b610345600480360381019061034091906113e8565b610933565b60405161035291906118e7565b60405180910390f35b610375600480360381019061037091906113e8565b6109aa565b60405161038291906118e7565b60405180910390f35b6103a560048036038101906103a09190611424565b6109cd565b005b6103c160048036038101906103bc919061135d565b610a53565b6040516103ce9190611aa4565b60405180910390f35b6103df610ada565b6040516103ec91906118cc565b60405180910390f35b61040f600480360381019061040a9190611334565b610b00565b005b60606004805461042090611bd4565b80601f016020809104026020016040519081016040528092919081815260200182805461044c90611bd4565b80156104995780601f1061046e57610100808354040283529160200191610499565b820191906000526020600020905b81548152906001019060200180831161047c57829003601f168201915b5050505050905090565b6000806104ae610bf8565b90506104bb818585610c00565b600191505092915050565b6000600354905090565b6000806104db610bf8565b90506104e8858285610dcb565b6104f3858585610e57565b60019150509392505050565b60006012905090565b600080610513610bf8565b90506105348185856105258589610a53565b61052f9190611af6565b610c00565b600191505092915050565b60075481565b6000600860003373ffffffffffffffffffffffffffffffffffffffff1673ffffffffffffffffffffffffffffffffffffffff16815260200190815260200160002060009054906101000a900460ff16156105d4576040517f08c379a00000000000000000000000000000000000000000000000000000000081526004016105cb90611a04565b60405180910390fd5b6001600860003373ffffffffffffffffffffffffffffffffffffffff1673ffffffffffffffffffffffffffffffffffffffff16815260200190815260200160002060006101000a81548160ff021916908315150217905550610638826007546110db565b60019050919050565b6000600160008373ffffffffffffffffffffffffffffffffffffffff1673ffffffffffffffffffffffffffffffffffffffff168152602001908152602001600020549050919050565b610692610bf8565b73ffffffffffffffffffffffffffffffffffffffff166106b0610712565b73ffffffffffffffffffffffffffffffffffffffff1614610706576040517f08c379a00000000000000000000000000000000000000000000000000000000081526004016106fd906119e4565b60405180910390fd5b610710600061123c565b565b60008060009054906101000a900473ffffffffffffffffffffffffffffffffffffffff16905090565b6000600660009054906101000a900473ffffffffffffffffffffffffffffffffffffffff1673ffffffffffffffffffffffffffffffffffffffff163373ffffffffffffffffffffffffffffffffffffffff16146107cd576040517f08c379a00000000000000000000000000000000000000000000000000000000081526004016107c4906119c4565b60405180910390fd5b6107d783836110db565b6001905092915050565b6060600580546107f090611bd4565b80601f016020809104026020016040519081016040528092919081815260200182805461081c90611bd4565b80156108695780601f1061083e57610100808354040283529160200191610869565b820191906000526020600020905b81548152906001019060200180831161084c57829003601f168201915b5050505050905090565b61087b610bf8565b73ffffffffffffffffffffffffffffffffffffffff16610899610712565b73ffffffffffffffffffffffffffffffffffffffff16146108ef576040517f08c379a00000000000000000000000000000000000000000000000000000000081526004016108e6906119e4565b60405180910390fd5b80600660006101000a81548173ffffffffffffffffffffffffffffffffffffffff021916908373ffffffffffffffffffffffffffffffffffffffff16021790555050565b60008061093e610bf8565b9050600061094c8286610a53565b905083811015610991576040517f08c379a000000000000000000000000000000000000000000000000000000000815260040161098890611a64565b60405180910390fd5b61099e8286868403610c00565b60019250505092915050565b6000806109b5610bf8565b90506109c2818585610e57565b600191505092915050565b6109d5610bf8565b73ffffffffffffffffffffffffffffffffffffffff166109f3610712565b73ffffffffffffffffffffffffffffffffffffffff1614610a49576040517f08c379a0000000000000000000000000000000000000000000000000000000008152600401610a40906119e4565b60405180910390fd5b8060078190555050565b6000600260008473ffffffffffffffffffffffffffffffffffffffff1673ffffffffffffffffffffffffffffffffffffffff16815260200190815260200160002060008373ffffffffffffffffffffffffffffffffffffffff1673ffffffffffffffffffffffffffffffffffffffff16815260200190815260200160002054905092915050565b600660009054906101000a900473ffffffffffffffffffffffffffffffffffffffff1681565b610b08610bf8565b73ffffffffffffffffffffffffffffffffffffffff16610b26610712565b73ffffffffffffffffffffffffffffffffffffffff1614610b7c576040517f08c379a0000000000000000000000000000000000000000000000000000000008152600401610b73906119e4565b60405180910390fd5b600073ffffffffffffffffffffffffffffffffffffffff168173ffffffffffffffffffffffffffffffffffffffff161415610bec576040517f08c379a0000000000000000000000000000000000000000000000000000000008152600401610be390611944565b60405180910390fd5b610bf58161123c565b50565b600033905090565b600073ffffffffffffffffffffffffffffffffffffffff168373ffffffffffffffffffffffffffffffffffffffff161415610c70576040517f08c379a0000000000000000000000000000000000000000000000000000000008152600401610c6790611a44565b60405180910390fd5b600073ffffffffffffffffffffffffffffffffffffffff168273ffffffffffffffffffffffffffffffffffffffff161415610ce0576040517f08c379a0000000000000000000000000000000000000000000000000000000008152600401610cd790611964565b60405180910390fd5b80600260008573ffffffffffffffffffffffffffffffffffffffff1673ffffffffffffffffffffffffffffffffffffffff16815260200190815260200160002060008473ffffffffffffffffffffffffffffffffffffffff1673ffffffffffffffffffffffffffffffffffffffff168152602001908152602001600020819055508173ffffffffffffffffffffffffffffffffffffffff168373ffffffffffffffffffffffffffffffffffffffff167f8c5be1e5ebec7d5bd14f71427d1e84f3dd0314c0f7b2291e5b200ac8c7c3b92583604051610dbe9190611aa4565b60405180910390a3505050565b6000610dd78484610a53565b90507fffffffffffffffffffffffffffffffffffffffffffffffffffffffffffffffff8114610e515781811015610e43576040517f08c379a0000000000000000000000000000000000000000000000000000000008152600401610e3a90611984565b60405180910390fd5b610e508484848403610c00565b5b50505050565b600073ffffffffffffffffffffffffffffffffffffffff168373ffffffffffffffffffffffffffffffffffffffff161415610ec7576040517f08c379a0000000000000000000000000000000000000000000000000000000008152600401610ebe90611a24565b60405180910390fd5b600073ffffffffffffffffffffffffffffffffffffffff168273ffffffffffffffffffffffffffffffffffffffff161415610f37576040517f08c379a0000000000000000000000000000000000000000000000000000000008152600401610f2e90611924565b60405180910390fd5b610f42838383611300565b6000600160008573ffffffffffffffffffffffffffffffffffffffff1673ffffffffffffffffffffffffffffffffffffffff16815260200190815260200160002054905081811015610fc9576040517f08c379a0000000000000000000000000000000000000000000000000000000008152600401610fc0906119a4565b60405180910390fd5b818103600160008673ffffffffffffffffffffffffffffffffffffffff1673ffffffffffffffffffffffffffffffffffffffff1681526020019081526020016000208190555081600160008573ffffffffffffffffffffffffffffffffffffffff1673ffffffffffffffffffffffffffffffffffffffff168152602001908152602001600020600082825461105e9190611af6565b925050819055508273ffffffffffffffffffffffffffffffffffffffff168473ffffffffffffffffffffffffffffffffffffffff167fddf252ad1be2c89b69c2b068fc378daa952ba7f163c4a11628f55a4df523b3ef846040516110c29190611aa4565b60405180910390a36110d5848484611305565b50505050565b600073ffffffffffffffffffffffffffffffffffffffff168273ffffffffffffffffffffffffffffffffffffffff16141561114b576040517f08c379a000000000000000000000000000000000000000000000000000000000815260040161114290611a84565b60405180910390fd5b61115760008383611300565b80600360008282546111699190611af6565b9250508190555080600160008473ffffffffffffffffffffffffffffffffffffffff1673ffffffffffffffffffffffffffffffffffffffff16815260200190815260200160002060008282546111bf9190611af6565b925050819055508173ffffffffffffffffffffffffffffffffffffffff16600073ffffffffffffffffffffffffffffffffffffffff167fddf252ad1be2c89b69c2b068fc378daa952ba7f163c4a11628f55a4df523b3ef836040516112249190611aa4565b60405180910390a361123860008383611305565b5050565b60008060009054906101000a900473ffffffffffffffffffffffffffffffffffffffff169050816000806101000a81548173ffffffffffffffffffffffffffffffffffffffff021916908373ffffffffffffffffffffffffffffffffffffffff1602179055508173ffffffffffffffffffffffffffffffffffffffff168173ffffffffffffffffffffffffffffffffffffffff167f8be0079c531659141344cd1fd0a4f28419497f9722a3daafe3b4186f6b6457e060405160405180910390a35050565b505050565b505050565b60008135905061131981611c75565b92915050565b60008135905061132e81611c8c565b92915050565b60006020828403121561134657600080fd5b60006113548482850161130a565b91505092915050565b6000806040838503121561137057600080fd5b600061137e8582860161130a565b925050602061138f8582860161130a565b9150509250929050565b6000806000606084860312156113ae57600080fd5b60006113bc8682870161130a565b93505060206113cd8682870161130a565b92505060406113de8682870161131f565b9150509250925092565b600080604083850312156113fb57600080fd5b60006114098582860161130a565b925050602061141a8582860161131f565b9150509250929050565b60006020828403121561143657600080fd5b60006114448482850161131f565b91505092915050565b61145681611b4c565b82525050565b61146581611b5e565b82525050565b600061147682611ada565b6114808185611ae5565b9350611490818560208601611ba1565b61149981611c64565b840191505092915050565b60006114b1602383611ae5565b91507f45524332303a207472616e7366657220746f20746865207a65726f206164647260008301527f65737300000000000000000000000000000000000000000000000000000000006020830152604082019050919050565b6000611517602683611ae5565b91507f4f776e61626c653a206e6577206f776e657220697320746865207a65726f206160008301527f64647265737300000000000000000000000000000000000000000000000000006020830152604082019050919050565b600061157d602283611ae5565b91507f45524332303a20617070726f766520746f20746865207a65726f20616464726560008301527f73730000000000000000000000000000000000000000000000000000000000006020830152604082019050919050565b60006115e3601d83611ae5565b91507f45524332303a20696e73756666696369656e7420616c6c6f77616e63650000006000830152602082019050919050565b6000611623602683611ae5565b91507f45524332303a207472616e7366657220616d6f756e742065786365656473206260008301527f616c616e636500000000000000000000000000000000000000000000000000006020830152604082019050919050565b6000611689602083611ae5565b91507f6f6e6c79207374616b696e6720636f6e747261637420697320616c6c6f7765646000830152602082019050919050565b60006116c9602083611ae5565b91507f4f776e61626c653a2063616c6c6572206973206e6f7420746865206f776e65726000830152602082019050919050565b6000611709601783611ae5565b91507f4164647265737320616c726561647920697320757365640000000000000000006000830152602082019050919050565b6000611749602583611ae5565b91507f45524332303a207472616e736665722066726f6d20746865207a65726f20616460008301527f64726573730000000000000000000000000000000000000000000000000000006020830152604082019050919050565b60006117af602483611ae5565b91507f45524332303a20617070726f76652066726f6d20746865207a65726f2061646460008301527f72657373000000000000000000000000000000000000000000000000000000006020830152604082019050919050565b6000611815602583611ae5565b91507f45524332303a2064656372656173656420616c6c6f77616e63652062656c6f7760008301527f207a65726f0000000000000000000000000000000000000000000000000000006020830152604082019050919050565b600061187b601f83611ae5565b91507f45524332303a206d696e7420746f20746865207a65726f2061646472657373006000830152602082019050919050565b6118b781611b8a565b82525050565b6118c681611b94565b82525050565b60006020820190506118e1600083018461144d565b92915050565b60006020820190506118fc600083018461145c565b92915050565b6000602082019050818103600083015261191c818461146b565b905092915050565b6000602082019050818103600083015261193d816114a4565b9050919050565b6000602082019050818103600083015261195d8161150a565b9050919050565b6000602082019050818103600083015261197d81611570565b9050919050565b6000602082019050818103600083015261199d816115d6565b9050919050565b600060208201905081810360008301526119bd81611616565b9050919050565b600060208201905081810360008301526119dd8161167c565b9050919050565b600060208201905081810360008301526119fd816116bc565b9050919050565b60006020820190508181036000830152611a1d816116fc565b9050919050565b60006020820190508181036000830152611a3d8161173c565b9050919050565b60006020820190508181036000830152611a5d816117a2565b9050919050565b60006020820190508181036000830152611a7d81611808565b9050919050565b60006020820190508181036000830152611a9d8161186e565b9050919050565b6000602082019050611ab960008301846118ae565b92915050565b6000602082019050611ad460008301846118bd565b92915050565b600081519050919050565b600082825260208201905092915050565b6000611b0182611b8a565b9150611b0c83611b8a565b9250827fffffffffffffffffffffffffffffffffffffffffffffffffffffffffffffffff03821115611b4157611b40611c06565b5b828201905092915050565b6000611b5782611b6a565b9050919050565b60008115159050919050565b600073ffffffffffffffffffffffffffffffffffffffff82169050919050565b6000819050919050565b600060ff82169050919050565b60005b83811015611bbf578082015181840152602081019050611ba4565b83811115611bce576000848401525b50505050565b60006002820490506001821680611bec57607f821691505b60208210811415611c0057611bff611c35565b5b50919050565b7f4e487b7100000000000000000000000000000000000000000000000000000000600052601160045260246000fd5b7f4e487b7100000000000000000000000000000000000000000000000000000000600052602260045260246000fd5b6000601f19601f8301169050919050565b611c7e81611b4c565b8114611c8957600080fd5b50565b611c9581611b8a565b8114611ca057600080fd5b5056fea2646970667358221220f1adfd242343da438ae5b78eebb7ad958ee88413914d177db3fcd6c35b02111964736f6c63430008000033",
  "immutableReferences": {},
  "source": "// SPDX-License-Identifier: MIT\r\npragma solidity 0.8.0;\r\n\r\nimport \"@openzeppelin/contracts/access/Ownable.sol\";\r\nimport \"@openzeppelin/contracts/token/ERC20/ERC20.sol\";\r\nimport \"@openzeppelin/contracts/token/ERC20/IERC20.sol\";\r\n//import \"@openzeppelin/contracts/token/ERC721/extensions/ERC721Enumerable.sol\";\r\n\r\ncontract Shinuamai is Ownable, ERC20 {\r\n\r\n    address public stakingContract;\r\n\r\n    uint256 public mintAmount = 200;\r\n\r\n    mapping(address => bool) hasUsed;\r\n    constructor() ERC20(\"Shinuamai\", \"SHA\") {\r\n        //_mint(msg.sender, msg.value);\r\n    }\r\n\r\n    function setMintAmount(uint256 newMintAmount) public onlyOwner {\r\n        mintAmount = newMintAmount;\r\n    }\r\n    function setStakingContract(address _stakingContract) public onlyOwner {\r\n        stakingContract = _stakingContract; \r\n    }\r\n\r\n    function mint(address recipient) public returns (bool) {\r\n        require(!hasUsed[msg.sender], \"Address already is used\");\r\n\r\n        hasUsed[msg.sender] = true;\r\n\r\n        _mint(recipient, mintAmount);\r\n\r\n        return true;\r\n    }\r\n\r\n    function mintForStaking(address recipient, uint256 amount) public returns (bool) {\r\n        require(msg.sender == stakingContract, \"only staking contract is allowed\");\r\n         _mint(recipient, amount);\r\n         return true;\r\n    }    \r\n}",
  "sourcePath": "C:\\Users\\itrmi\\OneDrive\\Documentos\\Laura\\Shinu\\Project1\\contracts\\Shinuamai.sol",
  "compiler": {
    "name": "solc",
    "version": "0.8.0+commit.c7dfd78e.Emscripten.clang"
  },
  "schemaVersion": "3.4.7",
  "updatedAt": "2022-06-23T01:18:40.081Z",
  "networkType": "ethereum",
  "devdoc": {
    "kind": "dev",
    "methods": {
      "allowance(address,address)": {
        "details": "See {IERC20-allowance}."
      },
      "approve(address,uint256)": {
        "details": "See {IERC20-approve}. NOTE: If `amount` is the maximum `uint256`, the allowance is not updated on `transferFrom`. This is semantically equivalent to an infinite approval. Requirements: - `spender` cannot be the zero address."
      },
      "balanceOf(address)": {
        "details": "See {IERC20-balanceOf}."
      },
      "decimals()": {
        "details": "Returns the number of decimals used to get its user representation. For example, if `decimals` equals `2`, a balance of `505` tokens should be displayed to a user as `5.05` (`505 / 10 ** 2`). Tokens usually opt for a value of 18, imitating the relationship between Ether and Wei. This is the value {ERC20} uses, unless this function is overridden; NOTE: This information is only used for _display_ purposes: it in no way affects any of the arithmetic of the contract, including {IERC20-balanceOf} and {IERC20-transfer}."
      },
      "decreaseAllowance(address,uint256)": {
        "details": "Atomically decreases the allowance granted to `spender` by the caller. This is an alternative to {approve} that can be used as a mitigation for problems described in {IERC20-approve}. Emits an {Approval} event indicating the updated allowance. Requirements: - `spender` cannot be the zero address. - `spender` must have allowance for the caller of at least `subtractedValue`."
      },
      "increaseAllowance(address,uint256)": {
        "details": "Atomically increases the allowance granted to `spender` by the caller. This is an alternative to {approve} that can be used as a mitigation for problems described in {IERC20-approve}. Emits an {Approval} event indicating the updated allowance. Requirements: - `spender` cannot be the zero address."
      },
      "name()": {
        "details": "Returns the name of the token."
      },
      "owner()": {
        "details": "Returns the address of the current owner."
      },
      "renounceOwnership()": {
        "details": "Leaves the contract without owner. It will not be possible to call `onlyOwner` functions anymore. Can only be called by the current owner. NOTE: Renouncing ownership will leave the contract without an owner, thereby removing any functionality that is only available to the owner."
      },
      "symbol()": {
        "details": "Returns the symbol of the token, usually a shorter version of the name."
      },
      "totalSupply()": {
        "details": "See {IERC20-totalSupply}."
      },
      "transfer(address,uint256)": {
        "details": "See {IERC20-transfer}. Requirements: - `to` cannot be the zero address. - the caller must have a balance of at least `amount`."
      },
      "transferFrom(address,address,uint256)": {
        "details": "See {IERC20-transferFrom}. Emits an {Approval} event indicating the updated allowance. This is not required by the EIP. See the note at the beginning of {ERC20}. NOTE: Does not update the allowance if the current allowance is the maximum `uint256`. Requirements: - `from` and `to` cannot be the zero address. - `from` must have a balance of at least `amount`. - the caller must have allowance for ``from``'s tokens of at least `amount`."
      },
      "transferOwnership(address)": {
        "details": "Transfers ownership of the contract to a new account (`newOwner`). Can only be called by the current owner."
      }
    },
    "version": 1
  },
  "userdoc": {
    "kind": "user",
    "methods": {},
    "version": 1
  }
}