{
  "contractName": "Staking",
  "abi": [
    {
      "anonymous": false,
      "inputs": [
        {
          "indexed": true,
          "internalType": "address",
          "name": "previousOwner",
          "type": "address"
        },
        {
          "indexed": true,
          "internalType": "address",
          "name": "newOwner",
          "type": "address"
        }
      ],
      "name": "OwnershipTransferred",
      "type": "event"
    },
    {
      "inputs": [
        {
          "internalType": "address",
          "name": "",
          "type": "address"
        }
      ],
      "name": "_stakingDataByAddress",
      "outputs": [
        {
          "internalType": "uint256",
          "name": "amount",
          "type": "uint256"
        },
        {
          "internalType": "uint256",
          "name": "timestamp",
          "type": "uint256"
        }
      ],
      "stateMutability": "view",
      "type": "function",
      "constant": true
    },
    {
      "inputs": [],
      "name": "owner",
      "outputs": [
        {
          "internalType": "address",
          "name": "",
          "type": "address"
        }
      ],
      "stateMutability": "view",
      "type": "function",
      "constant": true
    },
    {
      "inputs": [],
      "name": "renounceOwnership",
      "outputs": [],
      "stateMutability": "nonpayable",
      "type": "function"
    },
    {
      "inputs": [],
      "name": "rewardRate",
      "outputs": [
        {
          "internalType": "uint256",
          "name": "",
          "type": "uint256"
        }
      ],
      "stateMutability": "view",
      "type": "function",
      "constant": true
    },
    {
      "inputs": [],
      "name": "tokenContract",
      "outputs": [
        {
          "internalType": "address",
          "name": "",
          "type": "address"
        }
      ],
      "stateMutability": "view",
      "type": "function",
      "constant": true
    },
    {
      "inputs": [
        {
          "internalType": "address",
          "name": "newOwner",
          "type": "address"
        }
      ],
      "name": "transferOwnership",
      "outputs": [],
      "stateMutability": "nonpayable",
      "type": "function"
    },
    {
      "inputs": [
        {
          "internalType": "uint256",
          "name": "amount",
          "type": "uint256"
        }
      ],
      "name": "deposiToken",
      "outputs": [],
      "stateMutability": "nonpayable",
      "type": "function"
    },
    {
      "inputs": [],
      "name": "getRewards",
      "outputs": [],
      "stateMutability": "nonpayable",
      "type": "function"
    },
    {
      "inputs": [],
      "name": "retrieve",
      "outputs": [],
      "stateMutability": "nonpayable",
      "type": "function"
    },
    {
      "inputs": [],
      "name": "exit",
      "outputs": [],
      "stateMutability": "nonpayable",
      "type": "function"
    },
    {
      "inputs": [
        {
          "internalType": "address",
          "name": "contractAddress",
          "type": "address"
        }
      ],
      "name": "setokenContract",
      "outputs": [],
      "stateMutability": "nonpayable",
      "type": "function"
    }
  ],
  "bytecode": "0x6080604052600360015534801561001557600080fd5b5061003261002761003760201b60201c565b61003f60201b60201c565b610103565b600033905090565b60008060009054906101000a900473ffffffffffffffffffffffffffffffffffffffff169050816000806101000a81548173ffffffffffffffffffffffffffffffffffffffff021916908373ffffffffffffffffffffffffffffffffffffffff1602179055508173ffffffffffffffffffffffffffffffffffffffff168173ffffffffffffffffffffffffffffffffffffffff167f8be0079c531659141344cd1fd0a4f28419497f9722a3daafe3b4186f6b6457e060405160405180910390a35050565b610e3d806101126000396000f3fe608060405234801561001057600080fd5b50600436106100a95760003560e01c80637b0a47ee116100715780637b0a47ee146101065780638da5cb5b14610124578063a42a7be014610142578063d8c06e4714610173578063e9fad8ee1461018f578063f2fde38b14610199576100a9565b80630572b0cc146100ae5780632e64cec1146100b857806355a373d6146100c2578063571cd8fd146100e0578063715018a6146100fc575b600080fd5b6100b66101b5565b005b6100c06102e5565b005b6100ca610471565b6040516100d79190610b37565b60405180910390f35b6100fa60048036038101906100f591906109b8565b610497565b005b610104610557565b005b61010e6105df565b60405161011b9190610c12565b60405180910390f35b61012c6105e5565b6040516101399190610b37565b60405180910390f35b61015c600480360381019061015791906109b8565b61060e565b60405161016a929190610c2d565b60405180910390f35b61018d60048036038101906101889190610a0a565b610632565b005b6101976107a3565b005b6101b360048036038101906101ae91906109b8565b6107b5565b005b6000600360003373ffffffffffffffffffffffffffffffffffffffff1673ffffffffffffffffffffffffffffffffffffffff1681526020019081526020016000209050600060015482600101544261020d9190610d17565b836000015461021c9190610cbd565b6102269190610cbd565b9050600260009054906101000a900473ffffffffffffffffffffffffffffffffffffffff1673ffffffffffffffffffffffffffffffffffffffff16638eadca3633836040518363ffffffff1660e01b8152600401610285929190610b89565b602060405180830381600087803b15801561029f57600080fd5b505af11580156102b3573d6000803e3d6000fd5b505050506040513d601f19601f820116820180604052508101906102d791906109e1565b504282600101819055505050565b6102ed6101b5565b600260009054906101000a900473ffffffffffffffffffffffffffffffffffffffff1673ffffffffffffffffffffffffffffffffffffffff1663a9059cbb33600360003373ffffffffffffffffffffffffffffffffffffffff1673ffffffffffffffffffffffffffffffffffffffff168152602001908152602001600020600001546040518363ffffffff1660e01b815260040161038c929190610b89565b602060405180830381600087803b1580156103a657600080fd5b505af11580156103ba573d6000803e3d6000fd5b505050506040513d601f19601f820116820180604052508101906103de91906109e1565b61041d576040517f08c379a000000000000000000000000000000000000000000000000000000000815260040161041490610bd2565b60405180910390fd5b600360003373ffffffffffffffffffffffffffffffffffffffff1673ffffffffffffffffffffffffffffffffffffffff16815260200190815260200160002060008082016000905560018201600090555050565b600260009054906101000a900473ffffffffffffffffffffffffffffffffffffffff1681565b61049f6108ad565b73ffffffffffffffffffffffffffffffffffffffff166104bd6105e5565b73ffffffffffffffffffffffffffffffffffffffff1614610513576040517f08c379a000000000000000000000000000000000000000000000000000000000815260040161050a90610bf2565b60405180910390fd5b80600260006101000a81548173ffffffffffffffffffffffffffffffffffffffff021916908373ffffffffffffffffffffffffffffffffffffffff16021790555050565b61055f6108ad565b73ffffffffffffffffffffffffffffffffffffffff1661057d6105e5565b73ffffffffffffffffffffffffffffffffffffffff16146105d3576040517f08c379a00000000000000000000000000000000000000000000000000000000081526004016105ca90610bf2565b60405180910390fd5b6105dd60006108b5565b565b60015481565b60008060009054906101000a900473ffffffffffffffffffffffffffffffffffffffff16905090565b60036020528060005260406000206000915090508060000154908060010154905082565b6000600360003373ffffffffffffffffffffffffffffffffffffffff1673ffffffffffffffffffffffffffffffffffffffff168152602001908152602001600020905060008160000154111561068b5761068a6101b5565b5b600260009054906101000a900473ffffffffffffffffffffffffffffffffffffffff1673ffffffffffffffffffffffffffffffffffffffff166323b872dd3330856040518463ffffffff1660e01b81526004016106ea93929190610b52565b602060405180830381600087803b15801561070457600080fd5b505af1158015610718573d6000803e3d6000fd5b505050506040513d601f19601f8201168201806040525081019061073c91906109e1565b61077b576040517f08c379a000000000000000000000000000000000000000000000000000000000815260040161077290610bd2565b60405180910390fd5b8181600001600082825461078f9190610c67565b925050819055504281600101819055505050565b6107ab6102e5565b6107b36101b5565b565b6107bd6108ad565b73ffffffffffffffffffffffffffffffffffffffff166107db6105e5565b73ffffffffffffffffffffffffffffffffffffffff1614610831576040517f08c379a000000000000000000000000000000000000000000000000000000000815260040161082890610bf2565b60405180910390fd5b600073ffffffffffffffffffffffffffffffffffffffff168173ffffffffffffffffffffffffffffffffffffffff1614156108a1576040517f08c379a000000000000000000000000000000000000000000000000000000000815260040161089890610bb2565b60405180910390fd5b6108aa816108b5565b50565b600033905090565b60008060009054906101000a900473ffffffffffffffffffffffffffffffffffffffff169050816000806101000a81548173ffffffffffffffffffffffffffffffffffffffff021916908373ffffffffffffffffffffffffffffffffffffffff1602179055508173ffffffffffffffffffffffffffffffffffffffff168173ffffffffffffffffffffffffffffffffffffffff167f8be0079c531659141344cd1fd0a4f28419497f9722a3daafe3b4186f6b6457e060405160405180910390a35050565b60008135905061098881610dc2565b92915050565b60008151905061099d81610dd9565b92915050565b6000813590506109b281610df0565b92915050565b6000602082840312156109ca57600080fd5b60006109d884828501610979565b91505092915050565b6000602082840312156109f357600080fd5b6000610a018482850161098e565b91505092915050565b600060208284031215610a1c57600080fd5b6000610a2a848285016109a3565b91505092915050565b610a3c81610d4b565b82525050565b6000610a4f602683610c56565b91507f4f776e61626c653a206e6577206f776e657220697320746865207a65726f206160008301527f64647265737300000000000000000000000000000000000000000000000000006020830152604082019050919050565b6000610ab5600f83610c56565b91507f5472616e73666572206661696c656400000000000000000000000000000000006000830152602082019050919050565b6000610af5602083610c56565b91507f4f776e61626c653a2063616c6c6572206973206e6f7420746865206f776e65726000830152602082019050919050565b610b3181610d89565b82525050565b6000602082019050610b4c6000830184610a33565b92915050565b6000606082019050610b676000830186610a33565b610b746020830185610a33565b610b816040830184610b28565b949350505050565b6000604082019050610b9e6000830185610a33565b610bab6020830184610b28565b9392505050565b60006020820190508181036000830152610bcb81610a42565b9050919050565b60006020820190508181036000830152610beb81610aa8565b9050919050565b60006020820190508181036000830152610c0b81610ae8565b9050919050565b6000602082019050610c276000830184610b28565b92915050565b6000604082019050610c426000830185610b28565b610c4f6020830184610b28565b9392505050565b600082825260208201905092915050565b6000610c7282610d89565b9150610c7d83610d89565b9250827fffffffffffffffffffffffffffffffffffffffffffffffffffffffffffffffff03821115610cb257610cb1610d93565b5b828201905092915050565b6000610cc882610d89565b9150610cd383610d89565b9250817fffffffffffffffffffffffffffffffffffffffffffffffffffffffffffffffff0483118215151615610d0c57610d0b610d93565b5b828202905092915050565b6000610d2282610d89565b9150610d2d83610d89565b925082821015610d4057610d3f610d93565b5b828203905092915050565b6000610d5682610d69565b9050919050565b60008115159050919050565b600073ffffffffffffffffffffffffffffffffffffffff82169050919050565b6000819050919050565b7f4e487b7100000000000000000000000000000000000000000000000000000000600052601160045260246000fd5b610dcb81610d4b565b8114610dd657600080fd5b50565b610de281610d5d565b8114610ded57600080fd5b50565b610df981610d89565b8114610e0457600080fd5b5056fea2646970667358221220527f321c6433b986d976d5321d11c83869f7d508c4f3ae5c63591d6fa92c4fc864736f6c63430008000033",
  "immutableReferences": {},
  "source": "// SPDX-License-Identifier: MIT\r\npragma solidity 0.8.0;\r\n\r\nimport \"@openzeppelin/contracts/access/Ownable.sol\";\r\nimport \"@openzeppelin/contracts/token/ERC20/ERC20.sol\";\r\nimport \"@openzeppelin/contracts/token/ERC20/IERC20.sol\";\r\nimport \"@openzeppelin/contracts/token/ERC721/extensions/ERC721Enumerable.sol\";\r\nimport {Shinuamai} from \"./Shinuamai.sol\";\r\n\r\ncontract Staking is Ownable {\r\n    // reward rate is in units token/(second + token)\r\n    uint256 public rewardRate = 3;\r\n    address public tokenContract;\r\n    \r\n    struct StakingData {\r\n        uint256 amount;\r\n        uint256 timestamp;\r\n    }\r\n\r\n    mapping(address => StakingData) public _stakingDataByAddress;\r\n\r\n    function deposiToken(uint256 amount) public {\r\n        StakingData storage data = _stakingDataByAddress[msg.sender];\r\n\r\n        if (data.amount > 0) getRewards();\r\n\r\n        require(\r\n            IERC20(tokenContract).transferFrom(\r\n                msg.sender,\r\n                address(this),\r\n                amount\r\n            ),\r\n            \"Transfer failed\"\r\n        );\r\n\r\n        data.amount += amount;\r\n        data.timestamp = block.timestamp;\r\n\r\n        //_stakingDataByAddress[msg.sender] = Data(amount, block.timestamp);\r\n    }\r\n\r\n    function getRewards() public {\r\n        StakingData storage data = _stakingDataByAddress[msg.sender];\r\n\r\n        uint256 reward = data.amount *\r\n            (block.timestamp - data.timestamp) *\r\n            rewardRate;\r\n\r\n        Shinuamai(tokenContract).mintForStaking(msg.sender, reward);\r\n\r\n        data.timestamp = block.timestamp;\r\n    }\r\n\r\n    function retrieve() public {\r\n        getRewards();\r\n\r\n        require(\r\n            IERC20(tokenContract).transfer(\r\n                msg.sender,\r\n                _stakingDataByAddress[msg.sender].amount\r\n            ),\r\n            \"Transfer failed\"\r\n        );\r\n        delete _stakingDataByAddress[msg.sender];\r\n    }\r\n\r\n    function exit() public {\r\n        retrieve();\r\n        getRewards();\r\n    }\r\n\r\n    function setokenContract(address contractAddress) external onlyOwner {\r\n        tokenContract = contractAddress;\r\n    }\r\n}\r\n",
  "sourcePath": "C:\\Users\\itrmi\\OneDrive\\Documentos\\Laura\\Shinu\\Project1\\contracts\\StakingContract.sol",
  "compiler": {
    "name": "solc",
    "version": "0.8.0+commit.c7dfd78e.Emscripten.clang"
  },
  "schemaVersion": "3.4.7",
  "updatedAt": "2022-06-23T01:18:40.114Z",
  "networkType": "ethereum",
  "devdoc": {
    "kind": "dev",
    "methods": {
      "owner()": {
        "details": "Returns the address of the current owner."
      },
      "renounceOwnership()": {
        "details": "Leaves the contract without owner. It will not be possible to call `onlyOwner` functions anymore. Can only be called by the current owner. NOTE: Renouncing ownership will leave the contract without an owner, thereby removing any functionality that is only available to the owner."
      },
      "transferOwnership(address)": {
        "details": "Transfers ownership of the contract to a new account (`newOwner`). Can only be called by the current owner."
      }
    },
    "version": 1
  },
  "userdoc": {
    "kind": "user",
    "methods": {},
    "version": 1
  }
}